:020000040000FA
:10000000020FB78B2B8A2C892DAD07AC06D3E532B6
:100010009400E531940050030200C8D2C57537271B
:1000200075381020C00DE5381538AE377002153719
:100030004E70F0E538453770097BFF7A0679130278
:1000400000FAC2C0ED54FEF5C2753727753810208E
:10005000C00DE5381538AE37700215374E70F0E533
:1000600038453770097BFF7A067923020176C2C0D2
:10007000E4F535F536C3E5369532E535953150482A
:10008000E53625E0FFE53533AB2BAA2CA92D8F8271
:10009000F583120921F5C275372775381020C00D78
:1000A000E5381538AE37700215374E70F0E5384533
:1000B0003770097BFF7A067937020176C2C00536B0
:1000C000E53670B1053580ADD3E5349400E5339461
:1000D0000050030201A7D2C575372775381020C01C
:1000E0000DE5381538AE37700215374E70F0E5382B
:1000F0004537700B7BFF7A06794E12055DC322C22D
:10010000C0ED4401F5C275372775381020C00DE5E4
:10011000381538AE37700215374E70F0E538453770
:1001200070087BFF7A067960804CC2C0E4F535F533
:1001300036C3E5369534E5359533506BE53424FF09
:10014000FFE53334FFFEEFB53608EEB53504C2C126
:100150008002D2C175372775381020C00DE53815DB
:1001600038AE37700215374E70F0E5384537700FEE
:100170007BFF7A06797312055DD2C4C2C0C322AF79
:10018000C2EFFDE53625E0FFE53533AB2EAA2FA9FA
:10019000308F82F583E48DF0120959C2C00536E52F
:1001A0003670020535808AD2C4C2C0D3227F0F7E4A
:1001B00001120433EF64CC7003EE64EA6002C322E0
:1001C000E4FDFCFFFE1204067F647E001205027D42
:1001D000017C00E4FFFE1204067F647E001205022B
:1001E000E47524F4752301F522F5217FE57E0012E4
:1001F00004D0EF20E01B7F017E00120502782174FD
:10020000FF1209E2E4FBFAF9F8C312099C70DCC39F
:1002100022E4FDFC7F917E081204067D007C0A7FAB
:100220002D7E0012046E7D017C007FFF7E00120493
:10023000061203FE7D0D7C007F517E001204067DB8
:10024000B87C007F727E001204067F5E1204007D7F
:100250000D7C007F5F7E001204067D0E7C007F60B7
:100260007E001204067D0E7C007F617E0012040673
:100270007F6E1204687F6F1204687D017C007F70BE
:100280007E001204067D007C087F2E7E0012046E24
:10029000E4FDFC7FFFFE120406E4FDFC7F64FE1219
:1002A0000406D322AD07AC06AF04780AA607ED0812
:1002B000F6AF26AE25AD24AC2378181209AD780C24
:1002C000A607AF26AE25AD24AC2378101209AD7871
:1002D0000DA607AF26AE25AD24AC2378081209ADD4
:1002E000780EA607E526FFE408A607F52EF52F757C
:1002F0003006F531F532FB7A00790A7F52FE0200B2
:1003000003E4F5A77597A5F525F524F523F522E473
:100310007F19FEFDFCAB25AA24A923A822C312093C
:100320009C501800E5252401F525E43524F524E446
:100330003523F523E43522F52280D4A2AF9200C202
:10034000AF7597DE7597ADA20092AF227FDE7E007B
:10035000120433EF4E60157C007D3212090FE48FDA
:10036000268E25F524F5237F6CFE801075260075FA
:1003700025907524FF7523FF7F6C7E001202A47DFB
:10038000407C007F077E00020406E47526F4752594
:1003900001F524F5237F897E001204D0EF20E00DC3
:1003A000782374FF1209C2EC4D4E4F70E87F967EA1
:1003B000001204338E278F287D017C007F867E000B
:1003C000120406AE27AF28221205321201AD120325
:1003D0004C12038A8E088F097BFF7A0679891205F1
:1003E0005DE508FF12049CAF0912049C7BFF7A06AE
:1003F000799512055D7FE87E0312050280D37F5058
:100400007D0F7C007E00AA06EA780AF6EF08F6AFB8
:100410000508A607752E00752F007530127531007E
:10042000753203E4F533F534FB7A00790A7F52FE26
:10043000020003AC06EC780AF6EF08F6752E00759C
:100440002F00753012753100753202753300753426
:10045000027B007A00790A7F527E00120003781234
:10046000E6FE08E6FDEDFF227DC27C017E00AA06C5
:10047000EA780AF6EF08F6EC08F6ED08F6752E00B5
:10048000752F00753012753100753204E4F533F5BF
:1004900034FB7A00790A7F52FE0200038F21782212
:1004A0007C007D007BFF7A0679987E007F11120820
:1004B000D07F301205C17F781205C1E521C4120535
:1004C000BAE5211205BA7F0D1205C17F0A0205C1E6
:1004D000AC06EC780AF6EF08F6752E00752F00755D
:1004E00030127531007532027533007534017B00AE
:1004F0007A00790A7F527E001200037812E6FF7EAE
:100500000022E4F525F526C3E5269FE5259E50212A
:10051000E4F527F5280528E52870020527E528B425
:10052000E8F3E527B403EE0526E52670DA05258015
:10053000D62285A7211203011205A81205E2120591
:10054000C91205EC1205D61205821205951205F6A0
:1005500012060712060E1206008521A7228B398A81
:100560003A893BAB39AA3AA93B1208F66013053B1E
:10057000E53B7002053A14F91208F6FF1205C18036
:10058000E222AF885388AF758D96EF5440FEEF544A
:10059000104E428822E5C8540453C8FB75CB387509
:1005A000CA9E43C80442C8227580FF75A41075F125
:1005B000FFE4F5D4F5FE75FDFF22540F2422F8E682
:1005C000FF8F993099FDC2992275A60475A72075F1
:1005D000F30475CC0422E4F5A7F5A9E5A9548060DD
:1005E000FA2275A51075F2FF75D51022E4F5A775EE
:1005F000E34075E10522758E087589204388402205
:1006000043E60175A8902243C1C443D60122439812
:1006100010222253544152542074696D656F7574D1
:100620000D0A0041444452202877726974652920DC
:100630004E41434B0D0A00444154412028777269D2
:100640007465292074696D656F75740D0A005245D3
:1006500053544152542074696D656F75740D0A00CE
:100660004144445220287265616429204E41434B25
:100670000D0A0044415441202872656164292074A8
:10068000696D656F75740D0A0044697374616E63FA
:1006900065203D20000D0A003031323334353637C5
:0906A0003839414243444546004B
:10080000E709F608DFFA8046E709F208DFFA803EDA
:1008100088828C83E709F0A3DFFA8032E309F608C7
:10082000DFFA8078E309F208DFFA807088828C832F
:10083000E309F0A3DFFA806489828A83E0A3F608E3
:10084000DFFA805889828A83E0A3F208DFFA804CBD
:1008500080D280FA80C680D4806980F28033801094
:1008600080A680EA809A80A880DA80E280CA8033FD
:1008700089828A83ECFAE493A3C8C582C8CCC58375
:10088000CCF0A3C8C582C8CCC583CCDFE9DEE78045
:100890000D89828A83E493A3F608DFF9ECFAA9F0C4
:1008A000EDFB2289828A83ECFAE0A3C8C582C8CC1A
:1008B000C583CCF0A3C8C582C8CCC583CCDFEADE33
:1008C000E880DB89828A83E493A3F208DFF980CC95
:1008D00088F0EF60010E4E60C388F0ED2402B4048E
:1008E0000050B9F582EB2402B4040050AF23234535
:1008F000822390085073BB010689828A83E02250CC
:1009000002E722BBFE02E32289828A83E49322EF7C
:100910008DF0A4A8F0CF8CF0A428CE8DF0A42EFEEC
:1009200022BB0110E58229F582E5833AF583E0F5E3
:10093000F0A3E0225009E92582F886F008E622BB00
:10094000FE0AE92582F8E2F5F008E222E5832AF5BD
:1009500083E993F5F0A3E99322F8BB0111E582291D
:10096000F582E5833AF583E8F0E5F0A3F02250093B
:10097000E92582C8F608A6F022BBFE09E92582C84F
:10098000F2E5F008F222EB9FF5F0EA9E42F0E99DD5
:1009900042F0EC6480C864809845F022EB9FF5F04B
:1009A000EA9E42F0E99D42F0E89C45F022E8600FA3
:1009B000ECC313FCED13FDEE13FEEF13FFD8F12291
:1009C0007401FF3395E0FEFDFC080808E6CF2FF622
:1009D00018E6CE3EF618E6CD3DF618E6CC3CF622FB
:1009E0007401FF3395E0FEFDFC080808E62FFFF6D2
:1009F00018E63EFEF618E63DFDF618E63CFCF6224B
:0F0FB700120612787FE4F6D8FD75813B0203C85D
:00000001FF
